{
  "contractName": "Voting",
  "abi": [
    {
      "inputs": [
        {
          "internalType": "bytes32[]",
          "name": "candidateNames",
          "type": "bytes32[]"
        }
      ],
      "stateMutability": "nonpayable",
      "type": "constructor"
    },
    {
      "inputs": [
        {
          "internalType": "uint256",
          "name": "",
          "type": "uint256"
        }
      ],
      "name": "candidates",
      "outputs": [
        {
          "internalType": "bytes32",
          "name": "name",
          "type": "bytes32"
        },
        {
          "internalType": "uint256",
          "name": "votes",
          "type": "uint256"
        }
      ],
      "stateMutability": "view",
      "type": "function",
      "constant": true
    },
    {
      "inputs": [],
      "name": "voteMaster",
      "outputs": [
        {
          "internalType": "address",
          "name": "",
          "type": "address"
        }
      ],
      "stateMutability": "view",
      "type": "function",
      "constant": true
    },
    {
      "inputs": [
        {
          "internalType": "address",
          "name": "",
          "type": "address"
        }
      ],
      "name": "voters",
      "outputs": [
        {
          "internalType": "address",
          "name": "voterAddress",
          "type": "address"
        },
        {
          "internalType": "uint256",
          "name": "vote",
          "type": "uint256"
        },
        {
          "internalType": "bool",
          "name": "didVote",
          "type": "bool"
        },
        {
          "internalType": "uint256",
          "name": "weight",
          "type": "uint256"
        },
        {
          "internalType": "address",
          "name": "delegate",
          "type": "address"
        }
      ],
      "stateMutability": "view",
      "type": "function",
      "constant": true
    },
    {
      "inputs": [],
      "name": "candLength",
      "outputs": [
        {
          "internalType": "uint256",
          "name": "nrOfCandidates_",
          "type": "uint256"
        }
      ],
      "stateMutability": "view",
      "type": "function",
      "constant": true
    },
    {
      "inputs": [
        {
          "internalType": "address",
          "name": "voter",
          "type": "address"
        }
      ],
      "name": "approveVoter",
      "outputs": [],
      "stateMutability": "nonpayable",
      "type": "function"
    },
    {
      "inputs": [
        {
          "internalType": "uint256",
          "name": "candidate",
          "type": "uint256"
        }
      ],
      "name": "vote",
      "outputs": [],
      "stateMutability": "nonpayable",
      "type": "function"
    },
    {
      "inputs": [
        {
          "internalType": "address",
          "name": "to",
          "type": "address"
        }
      ],
      "name": "delegateVote",
      "outputs": [],
      "stateMutability": "nonpayable",
      "type": "function"
    },
    {
      "inputs": [],
      "name": "electionWinner",
      "outputs": [
        {
          "internalType": "uint256",
          "name": "electionWinner_",
          "type": "uint256"
        }
      ],
      "stateMutability": "view",
      "type": "function",
      "constant": true
    },
    {
      "inputs": [],
      "name": "theWinnerIs",
      "outputs": [
        {
          "internalType": "bytes32",
          "name": "winnerName_",
          "type": "bytes32"
        }
      ],
      "stateMutability": "view",
      "type": "function",
      "constant": true
    }
  ],
  "bytecode": "0x60806040523480156200001157600080fd5b506040516200131738038062001317833981810160405281019062000037919062000226565b336000806101000a81548173ffffffffffffffffffffffffffffffffffffffff021916908373ffffffffffffffffffffffffffffffffffffffff16021790555060018060008060009054906101000a900473ffffffffffffffffffffffffffffffffffffffff1673ffffffffffffffffffffffffffffffffffffffff1673ffffffffffffffffffffffffffffffffffffffff1681526020019081526020016000206003018190555060005b81518110156200016557600260405180604001604052808484815181106200010657fe5b6020026020010151815260200160008152509080600181540180825580915050600190039060005260206000209060020201600090919091909150600082015181600001556020820151816001015550508080600101915050620000e2565b5050620002f4565b6000620001846200017e846200029f565b6200026b565b90508083825260208201905082856020860282011115620001a457600080fd5b60005b85811015620001d85781620001bd88826200020f565b845260208401935060208301925050600181019050620001a7565b5050509392505050565b600082601f830112620001f457600080fd5b8151620002068482602086016200016d565b91505092915050565b6000815190506200022081620002da565b92915050565b6000602082840312156200023957600080fd5b600082015167ffffffffffffffff8111156200025457600080fd5b6200026284828501620001e2565b91505092915050565b6000604051905081810181811067ffffffffffffffff82111715620002955762000294620002d8565b5b8060405250919050565b600067ffffffffffffffff821115620002bd57620002bc620002d8565b5b602082029050602081019050919050565b6000819050919050565bfe5b620002e581620002ce565b8114620002f157600080fd5b50565b61101380620003046000396000f3fe608060405234801561001057600080fd5b50600436106100935760003560e01c80633dab9e39116100665780633dab9e391461011f5780635fe36f681461013d578063a3ec138d1461015b578063b31e1d4d1461018f578063fe159516146101ab57610093565b80630121b93f146100985780630e58a249146100b4578063119d4ddb146100d25780633477ee2e146100ee575b600080fd5b6100b260048036038101906100ad9190610a5c565b6101c9565b005b6100bc6102ff565b6040516100c99190610f31565b60405180910390f35b6100ec60048036038101906100e79190610a33565b610373565b005b61010860048036038101906101039190610a5c565b61052a565b604051610116929190610e08565b60405180910390f35b61012761055e565b6040516101349190610f31565b60405180910390f35b61014561056b565b6040516101529190610d7f565b60405180910390f35b61017560048036038101906101709190610a33565b61058f565b604051610186959493929190610d9a565b60405180910390f35b6101a960048036038101906101a49190610a33565b610612565b005b6101b36109dc565b6040516101c09190610ded565b60405180910390f35b6000600160003373ffffffffffffffffffffffffffffffffffffffff1673ffffffffffffffffffffffffffffffffffffffff16815260200190815260200160002090508060020160009054906101000a900460ff161561025e576040517f08c379a000000000000000000000000000000000000000000000000000000000815260040161025590610e71565b60405180910390fd5b60008160030154116102a5576040517f08c379a000000000000000000000000000000000000000000000000000000000815260040161029c90610e31565b60405180910390fd5b60018160020160006101000a81548160ff0219169083151502179055508181600101819055508060030154600283815481106102dd57fe5b9060005260206000209060020201600101600082825401925050819055505050565b6000806000905060005b60028054905081101561036e57816002828154811061032457fe5b9060005260206000209060020201600101541115610361576002818154811061034957fe5b90600052602060002090600202016001015491508092505b8080600101915050610309565b505090565b60008054906101000a900473ffffffffffffffffffffffffffffffffffffffff1673ffffffffffffffffffffffffffffffffffffffff163373ffffffffffffffffffffffffffffffffffffffff1614610401576040517f08c379a00000000000000000000000000000000000000000000000000000000081526004016103f890610ed1565b60405180910390fd5b600160008273ffffffffffffffffffffffffffffffffffffffff1673ffffffffffffffffffffffffffffffffffffffff16815260200190815260200160002060020160009054906101000a900460ff1615610491576040517f08c379a000000000000000000000000000000000000000000000000000000000815260040161048890610eb1565b60405180910390fd5b6000600160008373ffffffffffffffffffffffffffffffffffffffff1673ffffffffffffffffffffffffffffffffffffffff16815260200190815260200160002060030154146104e057600080fd5b60018060008373ffffffffffffffffffffffffffffffffffffffff1673ffffffffffffffffffffffffffffffffffffffff1681526020019081526020016000206003018190555050565b6002818154811061053a57600080fd5b90600052602060002090600202016000915090508060000154908060010154905082565b6000600280549050905090565b60008054906101000a900473ffffffffffffffffffffffffffffffffffffffff1681565b60016020528060005260406000206000915090508060000160009054906101000a900473ffffffffffffffffffffffffffffffffffffffff16908060010154908060020160009054906101000a900460ff16908060030154908060040160009054906101000a900473ffffffffffffffffffffffffffffffffffffffff16905085565b6000600160003373ffffffffffffffffffffffffffffffffffffffff1673ffffffffffffffffffffffffffffffffffffffff16815260200190815260200160002090508060020160009054906101000a900460ff16156106a7576040517f08c379a000000000000000000000000000000000000000000000000000000000815260040161069e90610e91565b60405180910390fd5b3373ffffffffffffffffffffffffffffffffffffffff168273ffffffffffffffffffffffffffffffffffffffff161415610716576040517f08c379a000000000000000000000000000000000000000000000000000000000815260040161070d90610ef1565b60405180910390fd5b600081600301541161075d576040517f08c379a000000000000000000000000000000000000000000000000000000000815260040161075490610e51565b60405180910390fd5b5b600073ffffffffffffffffffffffffffffffffffffffff16600160008473ffffffffffffffffffffffffffffffffffffffff1673ffffffffffffffffffffffffffffffffffffffff16815260200190815260200160002060040160009054906101000a900473ffffffffffffffffffffffffffffffffffffffff1673ffffffffffffffffffffffffffffffffffffffff16146108cd57600160008373ffffffffffffffffffffffffffffffffffffffff1673ffffffffffffffffffffffffffffffffffffffff16815260200190815260200160002060040160009054906101000a900473ffffffffffffffffffffffffffffffffffffffff1691503373ffffffffffffffffffffffffffffffffffffffff168273ffffffffffffffffffffffffffffffffffffffff1614156108c8576040517f08c379a00000000000000000000000000000000000000000000000000000000081526004016108bf90610f11565b60405180910390fd5b61075e565b60018160020160006101000a81548160ff021916908315150217905550818160040160006101000a81548173ffffffffffffffffffffffffffffffffffffffff021916908373ffffffffffffffffffffffffffffffffffffffff1602179055506000600160008473ffffffffffffffffffffffffffffffffffffffff1673ffffffffffffffffffffffffffffffffffffffff16815260200190815260200160002090508060020160009054906101000a900460ff16156109c0578160030154600282600101548154811061099d57fe5b9060005260206000209060020201600101600082825401925050819055506109d7565b816003015481600301600082825401925050819055505b505050565b600060026109e86102ff565b815481106109f257fe5b906000526020600020906002020160000154905090565b600081359050610a1881610faf565b92915050565b600081359050610a2d81610fc6565b92915050565b600060208284031215610a4557600080fd5b6000610a5384828501610a09565b91505092915050565b600060208284031215610a6e57600080fd5b6000610a7c84828501610a1e565b91505092915050565b610a8e81610f5d565b82525050565b610a9d81610f6f565b82525050565b610aac81610f7b565b82525050565b6000610abf601e83610f4c565b91507f596f7520617265206e6f7420617070726f76656420617320766f7465722100006000830152602082019050919050565b6000610aff604183610f4c565b91507f596f7520617265206e6f7420617070726f76656420617320766f74657220616e60008301527f642063616e206f6e6c792064656c6567617465206f6e636520796f752061726560208301527f21000000000000000000000000000000000000000000000000000000000000006040830152606082019050919050565b6000610b8b601583610f4c565b91507f596f7520616c72656164792064696420766f74652100000000000000000000006000830152602082019050919050565b6000610bcb603883610f4c565b91507f596f752063616e6e6f742064656c656761746520796f757220766f746520626560008301527f636175736520796f7520616c726561647920766f7465642100000000000000006020830152604082019050919050565b6000610c31601483610f4c565b91507f566f74657220616c726561647920766f746564210000000000000000000000006000830152602082019050919050565b6000610c71602983610f4c565b91507f4f6e6c7920766f74654d61737465722063616e2061636365737320746869732060008301527f66756e6374696f6e2100000000000000000000000000000000000000000000006020830152604082019050919050565b6000610cd7602a83610f4c565b91507f596f752063616e6e6f742064656c656761746520796f757220766f746520746f60008301527f20796f757273656c6621000000000000000000000000000000000000000000006020830152604082019050919050565b6000610d3d601a83610f4c565b91507f466f756e64206c6f6f7020696e2064656c65676174696f6e21210000000000006000830152602082019050919050565b610d7981610fa5565b82525050565b6000602082019050610d946000830184610a85565b92915050565b600060a082019050610daf6000830188610a85565b610dbc6020830187610d70565b610dc96040830186610a94565b610dd66060830185610d70565b610de36080830184610a85565b9695505050505050565b6000602082019050610e026000830184610aa3565b92915050565b6000604082019050610e1d6000830185610aa3565b610e2a6020830184610d70565b9392505050565b60006020820190508181036000830152610e4a81610ab2565b9050919050565b60006020820190508181036000830152610e6a81610af2565b9050919050565b60006020820190508181036000830152610e8a81610b7e565b9050919050565b60006020820190508181036000830152610eaa81610bbe565b9050919050565b60006020820190508181036000830152610eca81610c24565b9050919050565b60006020820190508181036000830152610eea81610c64565b9050919050565b60006020820190508181036000830152610f0a81610cca565b9050919050565b60006020820190508181036000830152610f2a81610d30565b9050919050565b6000602082019050610f466000830184610d70565b92915050565b600082825260208201905092915050565b6000610f6882610f85565b9050919050565b60008115159050919050565b6000819050919050565b600073ffffffffffffffffffffffffffffffffffffffff82169050919050565b6000819050919050565b610fb881610f5d565b8114610fc357600080fd5b50565b610fcf81610fa5565b8114610fda57600080fd5b5056fea2646970667358221220fb9e794df3e6fe8104955c8e9e6b6c186a7b2fbcd80d54b0a9f660fed0e6de2d64736f6c63430007060033",
  "immutableReferences": {},
  "source": "pragma solidity >=0.6.0 <0.8.0;\r\npragma experimental ABIEncoderV2;\r\n\r\ncontract Voting{\r\n\r\n  struct Voter{\r\n    address voterAddress;\r\n    uint vote; //index of candidate voted for\r\n    bool didVote; //false until voter did vote\r\n    //voter can only vote when weight is >= 1!\r\n    uint weight; //increases when someone delegates his/her vote to this voter or voteMaster approves voter!\r\n    address delegate; //address that gets delegated with the vote\r\n  }\r\n\r\n  struct Candidate{\r\n    bytes32 name;  //name of candidate\r\n    uint votes;    //keeps track of votes given to this candidate\r\n  }\r\n\r\n  address public voteMaster; //voteMaster is the address approving voterAddress\r\n\r\n  mapping (address => Voter) public voters; //connects address to Voter structs\r\n\r\n  Candidate[] public candidates; //stores all candidates input by the voteMaster (deployer) in the constructor\r\n\r\n\r\n  constructor(bytes32[] memory candidateNames) public {\r\n    voteMaster = msg.sender;\r\n    voters[voteMaster].weight = 1;\r\n\r\n    for (uint i = 0; i < candidateNames.length; i++){  //pushes all candidate names of candidateName[] (from constructor input) to candidates[] (state array) and sets votes to 0\r\n      candidates.push(Candidate({\r\n        name: candidateNames[i],\r\n        votes: 0\r\n      }));\r\n    }\r\n  }\r\n\r\n\r\n  //gets length for candidate array\r\n  function candLength() public view returns(uint nrOfCandidates_){\r\n    return nrOfCandidates_ = candidates.length;\r\n  }\r\n\r\n  //Voters validation function, only voteMaster(contrat owner) can execute\r\n  function approveVoter(address voter) public {\r\n    require(msg.sender == voteMaster, \"Only voteMaster can access this function!\");\r\n    require(!voters[voter].didVote, \"Voter already voted!\");\r\n    require(voters[voter].weight == 0);\r\n\r\n    voters[voter].weight = 1;\r\n  }\r\n\r\n  function vote(uint candidate) public {\r\n    Voter storage sender = voters[msg.sender]; //creates Voter variable and sets it to voters[msg.sender]\r\n    require(!sender.didVote, \"You already did vote!\");  //checks if msg.sender did already vote\r\n    require(sender.weight > 0, \"You are not approved as voter!\");\r\n\r\n    sender.didVote = true;\r\n    sender.vote = candidate;\r\n\r\n    candidates[candidate].votes += sender.weight;\r\n  }\r\n\r\n  function delegateVote(address to) public {\r\n    Voter storage sender = voters[msg.sender]; //creates Voter variable sender for msg.sender to have cleaner code for require statement!\r\n    require(!sender.didVote, \"You cannot delegate your vote because you already voted!\");\r\n    require(to != msg.sender, \"You cannot delegate your vote to yourself!\");\r\n    require(sender.weight > 0, \"You are not approved as voter and can only delegate once you are!\");\r\n\r\n    while(voters[to].delegate != address(0)){ //as long as voters to delegate is not equal to zero address, (in case to also delegates his/her vote),\r\n\r\n      to = voters[to].delegate;               // set to-address equal to voters to delegate, somehow this logic makes me crazy, haha.\r\n      require(to != msg.sender, \"Found loop in delegation!!\");\r\n    }\r\n\r\n    sender.didVote = true; //set senders vote status to true;\r\n    sender.delegate = to; //set senders delegate to \"to\" address\r\n\r\n    Voter storage delegate_ = voters[to]; //creates Voter variable for delegate to help ourselves in the if statements! makes a cleaner code than to write voters[to] all the time\r\n    if(delegate_.didVote){ //check if delegate already didVote, if yes:\r\n      candidates[delegate_.vote].votes += sender.weight; //Ok this is tricky. If delegate already did vote, then we add the weight of the sender(that delegate his vote to the delegate) instantly to the candidate that the delegate voted for!\r\n    }\r\n    else { //if delegate did not vote yet we:\r\n      delegate_.weight += sender.weight; //add senders weight to delegates weight.\r\n    }\r\n  }\r\n\r\n  function electionWinner() public view returns(uint electionWinner_){  //will return the id of the candidate with the most votes!\r\n      uint VotesCount = 0;                            //to store votes\r\n      for (uint p = 0; p < candidates.length; p++) {  //loops through all candidates\r\n          if (candidates[p].votes > VotesCount) {     //and checks if the candidates votes are higher than the votesCount\r\n            VotesCount = candidates[p].votes;         //If so, then sets the VotesCount equal to the candidates votes\r\n            electionWinner_ = p;                      //and returns candidate ID as electionWinner_\r\n          }\r\n      }\r\n  }\r\n\r\n  function theWinnerIs() public view returns(bytes32 winnerName_){  //returns name of the winner\r\n      return winnerName_ = candidates[electionWinner()].name;       //sets winnerName_ to result of [electionWinner()].name. nice and nested functionality here, haha.\r\n  }\r\n\r\n\r\n}\r\n",
  "sourcePath": "C:/Users/sound/Desktop/EthProjects/Voting/contracts/Voting.sol",
  "compiler": {
    "name": "solc",
    "version": "0.7.6+commit.7338295f.Emscripten.clang"
  },
  "schemaVersion": "3.3.4",
  "updatedAt": "2021-03-12T10:11:58.965Z",
  "networkType": "ethereum",
  "devdoc": {
    "kind": "dev",
    "methods": {},
    "version": 1
  },
  "userdoc": {
    "kind": "user",
    "methods": {},
    "version": 1
  }
}